:020000040800F2
:10000000C00B002045010008A3240008F7190008D0
:10001000A1240008B9020008212D000800000000FA
:10002000000000000000000000000000752700082C
:10003000BB02000800000000112700080529000885
:100040005F0100085F0100085F0100085F01000810
:100050005F0100085F0100085F0100085F01000800
:100060005F0100085F0100085F0100085F010008F0
:100070005F0100085F0100085F0100085F010008E0
:100080005F0100085F0100085F0100085F010008D0
:100090005F0100085F0100085F0100085F010008C0
:1000A0005F0100085F0100085F0100085F010008B0
:1000B000A92900085F0100085F0100085F0100082E
:1000C0005F0100085F0100085F0100085F01000890
:1000D0005F010008CD2C0008F92C00085F01000822
:1000E0005F0100085F0100085F0100085F01000870
:1000F0005F0100085F0100085F0100085F01000860
:100100005F0100085F0100085F0100085F0100084F
:100110005F0100085F0100085F0100085F0100083F
:100120005F0100085F0100085F0100085F0100082F
:10013000DFF80CD000F0AEF8004800476D40000832
:10014000C00B00200648804706480047FEE7FEE750
:10015000FEE7FEE7FEE7FEE7FEE7FEE7FEE7FEE777
:100160006129000831010008202A04DB203A21FA25
:1001700002F00021704721FA02F3D040C2F12002C0
:10018000914008431946704740EA01039B0703D09A
:1001900009E008C9121F08C0042AFAD203E011F8C6
:1001A000013B00F8013B521EF9D27047D2B201E088
:1001B00000F8012B491EFBD270470022F6E710B56C
:1001C00013460A4604461946FFF7F0FF204610BDC5
:1001D000421E12F8013F002BFBD111F8013B02F83F
:1001E000013B002BF9D1704730B505462A460B4636
:1001F00012F8010B13F8014B08B1A042F8D01CB162
:10020000002802D06D1CF1E7284630BDCAB2401E5E
:1002100010F8011F8A4202D00029F9D1002070474E
:10022000421C10F8011B0029FBD1801A704710B541
:10023000044600E0401C0378002BFBD100E0401C8A
:10024000521E04D311F8013B0370002BF7D100219B
:100250000170204610BD034611F8012B00F8012B58
:10026000002AF9D11846704730B50B4601460020E8
:100270002022012409E021FA02F59D4205D303FA68
:1002800002F5491B04FA02F52844151EA2F10102E9
:10029000F1DC30BD064C074D06E0E06840F001039C
:1002A00094E8070098471034AC42F6D3FFF744FFB8
:1002B000AC440008CC440008FEE7704710B5EF20BE
:1002C00002F020FD012002F01DFDFF2002F01AFDCA
:1002D000FF2002F017FDFF2002F014FDFF2002F0C6
:1002E00011FD012002F00EFD002002F00BFD0320A5
:1002F00002F008FD0D2002F005FD002002F002FDD5
:10030000BDE81040112002F0FDBC000010B58021B6
:100310000348FFF752FF03490020488010BD00004A
:100320001C0500203C00002010B5044600F0A2F897
:1003300058B90AA10B48FFF757FF30B13A21FFF730
:1003400065FF002800D0401C10BD052000F09AF980
:100350002046641EA4B2E9D210BD00004950442CCE
:10036000000000001C05002010B502F0DBFC114C61
:1003700000221021204600F03EFBFA2000F082F916
:1003800001221021204600F036FB4FF4FA7420467B
:1003900000F078F9FFF7BAFF02F0ECFC02E020462B
:1003A00000F070F9C82204A105A000F01FF8002891
:1003B000F5D110BD00080140434F4E4E4543540057
:1003C00041542B43495053544152543D22544350BD
:1003D000222C223138332E3233302E34302E333922
:1003E000222C363030320D0A0000000070B5144661
:1003F0000D460646FFF714FF81B2304602F0B0FC0E
:100400000FE000BF00F036F840B929460748FFF773
:10041000EBFE18B1FFF77AFF002070BD0A2000F054
:1004200031F9641EA4B2EDD2012070BD1C0500207C
:1004300030B589B00C460546FFF768FF224608A193
:10044000684602F00DFDC82209A16846FFF7CEFFFD
:10045000002803D12146284602F082FC09B030BDB5
:1004600041542B43495053454E443D25640D0A00E9
:100470003E0000000648418831B18288914205D192
:10048000032903D300207047012070478180FBE7D8
:100490003C00002006490020C8610648016941F07F
:1004A00004010161016941F04001016170470000F0
:1004B000A005002000200240064A0021D161064923
:1004C0000A6942F002020A614861086940F040008E
:1004D00008617047A005002000200240044B002264
:1004E000DA61044A136943F0010313610180704724
:1004F000A00500200020024014480022C168CB065D
:10050000134904D5CA6942F00202CA611022C368C5
:100510005B0705D5CB6943F00103CB6142F00402D0
:10052000C369DB0707D0CB6943F00403CB61C16922
:1005300021F00101C161A2F58071013901D0C260D1
:100540007047C16921F00101C1617047002002407C
:10055000A005002070B5054600F052FA0646114C81
:1005600009E0681C07D025B100F04AFA801BA842B8
:1005700001D9032070BDE068C007F2D1E0688006B1
:1005800001D52020E060E068C00605D4E069C0071E
:1005900002D1E068400703D5FFF7AEFF012070BD30
:1005A000002070BD002002400E4810B5816986B061
:1005B00041F00801816180690B4C00F00800049053
:1005C0000122E021204600F016FAE0200121CDE9C9
:1005D00000010220CDE902106946204600F016F91C
:1005E00006B010BD00100240000C014010B590F89C
:1005F00021100024022903D00421816301243DE05D
:1006000001680A6822F00E020A6001680A6822F096
:1006100001020A601A4A0168914201D1012121E0D8
:10062000174A1432914201D110211BE0144A28329A
:10063000914201D1891515E0114A3C32914201D114
:1006400089140FE00E4A5032914202D14FF48031AA
:1006500008E00B4A6432914202D14FF4801101E06C
:100660004FF08071064A083A5160012180F821104C
:10067000002180F82010416B01B18847204610BD51
:100680000800024070B5044600F0BAF90546601C47
:1006900002D004480078044400F0B2F9401BA042A4
:1006A000FAD370BD440000202DE9F04705462648E6
:1006B0000F460126017E01290FD0012181460176D6
:1006C0002868DFF888804CF25034022808D0A2460F
:1006D0002046FFF73FFFA8B131E00220BDE8F087D8
:1006E0002046FFF737FF08BB0120FFF7D3FE204667
:1006F000FFF730FFD8F81010064621F00401C8F8C3
:1007000010101CE04FF0FF303860AC6811E020465C
:10071000FFF7D2FE5046FFF71DFFD8F81010060075
:1007200021F00201C8F8101001D03C6007E004F588
:100730008064D5E9020100EB8120A042E7D80021C6
:1007400089F818103046C9E7A005002000200240B3
:100750000348016941F080010161002070470000F9
:10076000002002402DE9F05F07461C48884600241F
:10077000017E15461E46012909D0012181460176D8
:100780004CF2503A5046FFF7E5FE18B122E0022045
:10079000BDE8F09F012F02D0022F00D00427D346DE
:1007A000DFF83CA0220128463146FFF7DDFC81B28C
:1007B00008EB4400FFF792FE5846FFF7CBFEDAF84D
:1007C000102022F00102CAF8102018B9641CE4B20B
:1007D000BC42E7D3002289F81820D9E7A005002001
:1007E00000200240064900200A69120607D5054A82
:1007F0004A60054A4A600969090600D50120704728
:100800000020024023016745AB89EFCD2DE9F84F69
:10081000DFF8B891002409F1040A0AF1040B234619
:100820000F270BF1040EC9E00125A5402A40AA427A
:100830007DD1674ED1F804C0ACEB0608B44532D088
:1008400014DCBCF1030F3AD009DCBCF1000F2AD054
:10085000BCF1010F1CD0BCF1020F31D11DE0BCF185
:10086000110F17D0BCF1120F2AD119E0B8F5881F6B
:1008700019D006DCB8F5803F15D0B8F5801F1FD120
:1008800011E0B8F5001F0ED0B8F5041F18D10AE02A
:10089000CB6815E0CB681B1D12E0CB6808330FE076
:1008A000CB680C330CE08B682BB1012B4FF00803A5
:1008B00003D0456104E0042302E0056100E0002369
:1008C000FF2A01D8064601E000F104064FEA84053C
:1008D00001D9A5F12005D6F8008007FA05FC28EA21
:1008E0000C0803FA05F548EA0508C6F800804D68CB
:1008F000ED0062D5374DAE6946F00106AE61AD69D7
:1009000024F0030605F001050095334D06EB050CB8
:10091000DCF80850A607360F07FA06F825EA08059E
:10092000DFF8B880404503D14FF0000817E044E0FD
:10093000DFF8AC80404502D14FF001080FE0DFF84E
:10094000A480404502D14FF0020808E0DFF898800B
:10095000404502D14FF0030801E04FF0040808FAC7
:1009600006F848EA0508CCF808804D68D9F8006018
:10097000ED034D4601D5164300E096432E604D68C9
:10098000DAF80060AD03554601D5164300E0964302
:100990002E604D68DBF80060ED025D4601D5164320
:1009A00000E096432E604D68DEF80060AD027546AB
:1009B00001D5164300E096432E60641C0D682A465C
:1009C000E5407FF431AFBDE8F88F0000000401403E
:1009D000000011100010024000000140000801401A
:1009E000000C0140001001400014014080680840E4
:1009F00000D0012070470AB1016170470904FBE78C
:100A00000148806870470000440000200248816867
:100A1000027811448160704744000020074810B5F7
:100A2000016841F010010160032000F0BBF80020D4
:100A300000F006F800F024F8002010BD002002406D
:100A400070B50D4D04464FF47A712878B1FBF0F083
:100A50000A490968B1FBF0F000F032FB48B9102CEC
:100A600007D200222146501E00F07CF800206C6066
:100A700070BD012070BD0000440000205000002027
:100A80000C4808B5816941F001018161816901F07B
:100A900001010091C16941F08051C161C06900F05C
:100AA000805000900448416821F0E06141F080618D
:100AB000416008BD00100240000001402DE9F041F6
:100AC00016460F46040004D094F83900002518B1EA
:100AD00007E00120BDE8F08184F83850204600F09E
:100AE000B7FD242084F839002068C16821F4005142
:100AF000C160204602F02AF82068016921F4904183
:100B000001612068416921F02A0141612068016981
:100B100021F00F01016120680169394301612068FA
:100B2000C16821F40061C1602068C1683143C160BF
:100B30002068C16841F40051C160E563202084F859
:100B4000390084F83A000020C4E7002809DB00F0EF
:100B50001F02012191404009800000F1E020C0F80F
:100B600000117047F0B40E4B1B680C46C3F3022310
:100B7000C3F10705042D00D90425191D072901D249
:100B8000002300E0DB1E012606FA05F1491E214084
:100B900099409E40761E16403143F0BC02F074B975
:100BA0000CED00E0064900F0070208684FF6FF036D
:100BB000184040EA0220034A1043086070470000D2
:100BC0000CED00E00000FA052DE9F0470F460500A6
:100BD00061D0434E306800F00700B84209D2306857
:100BE00020F0070038433060306800F00700B8425A
:100BF00051D128683B4C810712D5400703D5606866
:100C000040F4E06060602878000703D5606840F435
:100C1000605060606068A96820F0F0000843606080
:100C20002878C00728D06868012810D021680228D9
:100C300010D0890700292EDA616821F003010143F1
:100C40006160FFF7DDFE804641F288390DE02168E2
:100C50008903EFE78901EDE7FFF7D2FEA0EB08017A
:100C6000494502D90320BDE8F0876068696800F053
:100C70000C00B0EB810FEFD1306800F00700B842F4
:100C80000BD9306820F0070038433060306800F03E
:100C90000700B84201D00120E5E72878400705D5D4
:100CA0006068E96820F4E060084360602878000725
:100CB00006D56068296920F4605040EAC100606090
:100CC00000F038F86168084AC1F30311515CC8406C
:100CD0000649086006480068FFF7B2FE0020C2E738
:100CE0000020024000100240944400085000002000
:100CF000480000200448054900684968044AC1F3D7
:100D00000221515CC8407047500000200010024092
:100D1000A44400080448054900684968044AC1F32E
:100D2000C221515CC84070475000002000100240B2
:100D3000A444000812A185B00FC98DE80F0014A0CB
:100D4000144A006804905168134801F00C03042B06
:100D500010D0082B0ED1C1F38343C9031DF8030043
:100D60000AD5516804AAC1F34041515C0A4A504374
:100D7000B0FBF1F005B0704708494843FAE70000BE
:100D800002030405060708090A0B0C0D0E0F1010CC
:100D9000010200000010024000127A0000093D002C
:100DA0002DE9F84F040070D02078C04DC00749D01D
:100DB0006868C0F38100012807D06868C0F381002B
:100DC000022809D16868C00306D52868800339D590
:100DD00060680028E7D035E06068B0F5803F0BD050
:100DE00010B1B0F5A02F11D0286820F48030286011
:100DF000286820F4802002E0286840F480302860D1
:100E0000606890B1FFF7FCFD06460AE0286840F4F0
:100E100080202860F0E700BFFFF7F2FD801B642808
:100E200073D828688003F7D50CE0FFF7E9FD064684
:100E300005E000BFFFF7E4FD801B6428F0D82868B8
:100E40008003F7D420789A4E80074FF001094FF0C5
:100E5000000839D5686810F00C0F07D06868C0F337
:100E60008100022809D16868C00306D42868800779
:100E700014D52069012808D110E02069B0B1C6F866
:100E80000090FFF7BDFD074605E00AE1FFF7B8FD5A
:100E9000C01B0228C4D828688007F7D52868616974
:100EA00020F0F80040EAC10028600DE0C6F800809C
:100EB000FFF7A6FD074604E0FFF7A2FDC01B0228CE
:100EC00023D828688007F7D4207800072CD57948E4
:100ED000A169D9B1C0F80090FFF792FD074604E080
:100EE000FFF78EFDC01B02280FD8686A8007F7D570
:100EF00071484FF4FA510068B0FBF1F0009000BF68
:100F00000098411E0091FAD20EE080E0C0F8008007
:100F1000FFF776FD074604E0FFF772FDC01B0228CD
:100F200075D8686A8007F7D42078400760D5E869EB
:100F30000027C00008D4E86940F08050E861E86903
:100F4000012700F0805000905C480168C90513D467
:100F50000168834641F480710160FFF751FD8246CC
:100F600006E000BFFFF74CFDA0EB0A0064284ED856
:100F7000DBF80000C005F5D5E06801280AD008B10B
:100F8000052813D0286A20F001002862286A20F082
:100F9000040002E0286A40F001002862E06841F2A3
:100FA000883B98B1FFF72CFD82460BE0286A40F0A1
:100FB00004002862EEE700BFFFF722FDA0EB0A0164
:100FC00059455AD8286A8007F6D50CE0FFF718FD76
:100FD000824605E0FFF714FDA0EB0A0159454CD805
:100FE000286A8007F6D41FB1E86920F08050E861D4
:100FF000E06988B36968C1F38101022944D00228FD
:10100000C6F8608004D0FFF7FBFC044638E034E00B
:10101000FFF7F6FC074604E0FFF7F2FCC01B0228CE
:101020002BD828688001F7D4206AB0F5803F05D11D
:101030006868A16820F4003008436860D4E90801BA
:101040000843696821F4741108436860C6F8609029
:10105000FFF7D6FC044606E025E000BFFFF7D0FC12
:10106000001B022809D828688001F7D51BE000BFC3
:10107000FFF7C6FC001B022802D90320BDE8F88F49
:1010800028688001F4D40EE00128F7D06868226A4D
:1010900000F48031914204D1616A00F470108842FA
:1010A00001D00120EAE70020E8E70000001002403C
:1010B0000000424280044242500000200070004084
:1010C00010B5401EB0F1807F01D3012010BD4FF05C
:1010D000E02460610F21601701F0D6FE0020A061BE
:1010E00007202061002010BD7047704770B590F850
:1010F0003C20012A19D0012400F83C4F0222427002
:1011000050F83C3C5A689D6822F070060A684968AD
:10111000324325F0800529435A6050F83C2C9160F9
:10112000447000210170084670BD022070BD10B5EA
:10113000040003D094F83D0010B107E0012010BD79
:10114000002084F83C00204600F00CF8022084F8CF
:101150003D00211D206801F02DFC012084F83D0098
:10116000002010BD08B50068B0F1804F12D10A48C8
:10117000C16941F00101C161C069002200F00100B4
:10118000009011461C20FFF7EDFCBDE808401C2034
:10119000FFF7DBBC08BD0000001002400168CA6810
:1011A00042F00102CA600068816801F00701062967
:1011B00003D0016841F0010101600020704770B563
:1011C000044690F83C00012817D0012584F83C50D3
:1011D000022084F83D002068826822F0770222F421
:1011E0007F4282600868502830D00DDC20284DD026
:1011F00005DC98B310283BD148E0022070BD3028B0
:1012000044D0402834D139E0602828D0702806D056
:10121000B0F5805F2CD0B0F5005F29D10AE0CB6833
:10122000D1E90121206801F0FBFB2068816841F0D1
:10123000770109E0CB68D1E90121206801F0F0FBDA
:101240002068816841F48041816011E0CA68496882
:10125000206801F0F7FB5021206807E016E0CA681B
:101260004968206801F0FFFB6021206801F0E2FB83
:1012700084F83D50002084F83C0070BDCA6849687D
:10128000206801F0DFFB40212068EFE7226801467B
:101290001046EBE7704770B50446006801694FF0EF
:1012A0000005C943890715D4C168C943890711D40A
:1012B000E91E0161012020772068806980072046AF
:1012C00002D0FFF7E7FF04E000F098F8204600F0B6
:1012D00096F8257720680169C943490717D4C16882
:1012E000C943490713D46FF004010161022020773C
:1012F0002068806910F4407F204602D0FFF7CAFFC3
:1013000004E000F07BF8204600F079F825772068AB
:101310000169C943090716D4C168C943090712D432
:101320006FF008010161042020772068C069800700
:10133000204602D0FFF7AEFF04E000F05FF8204641
:1013400000F05DF8257720680169C943C90617D404
:10135000C168C943C90613D46FF0100101610820A8
:1013600020772068C06910F4407F204602D0FFF744
:1013700091FF04E000F042F8204600F040F82577A5
:1013800020680169C943C90708D1C168C943C907B1
:1013900004D1891E0161204600F032F820680169FD
:1013A000C943090609D4C168C943090605D46FF0C9
:1013B000800101612046FFF797FE20680169C9435B
:1013C000490609D4C168C943490605D46FF04001F4
:1013D0000161204600F07AF820680169C943890656
:1013E0000BD4C168C943890607D46FF0200101619D
:1013F0002046BDE87040FFF778BE70BD704770476B
:101400002DE9F0412F4C0125206A401C2062E16942
:10141000491CE1613221B0FBF1F201FB1200002610
:1014200000BB607910B1401E607100E02671A07AA7
:10143000254F4FF40041B0B11E2803D90222227279
:101440000422A273401EA07201223846FFF7D3FA8D
:10145000607A50B1401E60721B480C30016881F008
:101460000101016007E00022EFE70122E57011466B
:101470003846FFF7C0FA206A40F29A21B0FBF1F239
:1014800001FB120131B9617B81F001016173A17B24
:1014900001B9A5714FF47A71B0FBF1F201FB1201B1
:1014A00029B9217A11B1491E217200E0A673B0F565
:1014B000FA6F04D32662A07B072800D1A571BDE88E
:1014C000F0810000000000200008014070477047D4
:1014D00010F8391F407808437047000070B5026863
:1014E00004461068D168536910F00F0F50D003F014
:1014F000010501F4907635435DD0C20705D0CA05D9
:1015000003D5E26B42F00102E263420705D5DA0738
:1015100003D0E26B42F00202E263820705D5DA07EC
:1015200003D0E26B42F00402E263020705D5DA075A
:1015300003D0E26B42F00802E263E26B002A33D090
:10154000800604D5880602D5204601F0B4FA20684A
:101550004069E16BC0F38010090700D428B320462E
:1015600001F09BFA2068416949061AD5416921F0CA
:1015700040014161606BA0B11B494163606BFFF7A3
:1015800035F8002810D0606B416BBDE8704008470B
:10159000830610D58B060ED52046BDE8704001F0BD
:1015A0008ABA2046FFF793FF70BD2046FFF78FFFF2
:1015B0000020E06370BD030606D50B0604D5204667
:1015C000BDE8704001F01EBB4006F3D54806F1D5DA
:1015D000D168204621F04001D160202184F83910E3
:1015E00000F008FA70BD00008B2A000870B50400F6
:1015F00004D094F83900002510B106E0012070BD38
:1016000084F83850204600F023F8242084F839006C
:101610002068C16821F40051C160204601F096FAAB
:101620002068016921F4904101612068416921F03D
:101630002A0141612068C16841F40051C160E5633D
:10164000202084F8390084F83A00002070BD0000A2
:1016500070B586B0002400940194029403942E4E39
:1016600003682E49022003222D4DB34226D18B69F7
:1016700043F480438B618B6903F4804304938B694B
:1016800043F004038B618969039201F00401049122
:101690000102CDE9001069462846FFF7B7F8281582
:1016A000CDE90004694628460294FFF7AFF800220E
:1016B00011462520FFF756FA252028E0194EB3429F
:1016C00027D1CB6943F40033CB61CB6903F40033FA
:1016D00004938B6943F004038B618969039201F0E1
:1016E000040104910421CDE9001069462846FFF762
:1016F0008DF80820CDE90004694628460294FFF7DA
:1017000085F8002211462620FFF72CFA2620FFF745
:101710001CFA06B070BD0000003801400010024005
:10172000000801400044004090F83A30202B22D1BC
:10173000F9B1F2B190F83830012B1CD0816282856A
:10174000C2850021C163222280F83A2080F8381037
:101750000168CA6842F48072CA6001684A6942F04E
:1017600001024A610068C16841F02001C1600020A7
:101770007047012070470220704700002DE9F041BA
:10178000584B026800219A420DD15748574C0378B4
:1017900057480288A354521C92B20280802A00D972
:1017A0000180BDE8F081534A9042FAD1524802F1DB
:1017B0004003012704781038062542694FF03C0C9D
:1017C0009C54521CC2F3090242619954847B022644
:1017D0001CB1072C43D0E4B171E0102A19D39C1836
:1017E00014F810ECBEF1EF0F13D114F80FECBEF1AA
:1017F000010F0ED114F80BECBEF1FF0F09D114F854
:1018000008ECBEF1070F04D114F80AECBEF1070F83
:1018100007D00C2A53D31A4412F80C3CEF2B3DD0BE
:101820004DE014F8072C62B10171027B521CD2B258
:101830000273032A0FD380F808C045721122827305
:101840003CE014F8052C82612822827201714772F3
:101850000173C17232E00322827306721CE00E2A09
:101860002DD31A4412F80E3CEF2B28D112F80D3C60
:10187000012B24D112F8093CFF2B20D112F8063C91
:10188000052B1CD112F8053CC3B9067205238373DE
:1018900012F8032CC0E9051245720FE012F80B3C58
:1018A000012B0CD112F8073CFF2B08D112F8043C95
:1018B000032B04D112F8032C4AB1017141610122BA
:1018C0000D490C48FFF730FF0028F8D169E702798D
:1018D0001AB1012AF2D10671F0E780F805C007714C
:1018E000ECE70000003801403C0000201C0500200F
:1018F0003E0000209C000020100000202DE9F8434D
:10190000044690F839001F4616460D46202850D14F
:10191000A5B19EB194F8380001284AD0012084F87E
:1019200038004FF00008C4F83C80212084F83900CA
:10193000FFF766F8A6848146E68426E00120BDE82C
:10194000F883E08C401EE084A0684B46B0F5805FD1
:101950004FF000024FF080012046009703D001F0C5
:1019600082F9E8B90DE001F07EF9C8B9288821684C
:10197000C0F308004860206908B16D1C05E0AD1C8B
:1019800003E0216815F8010B4860E08C0028D8D1ED
:101990004B46002240212046009701F064F908B12F
:1019A0000320CCE7202084F8390084F83880002018
:1019B000C5E70220C3E790F83930202B18D1A9B130
:1019C000A2B190F83830012B12D001628284C28417
:1019D0000021C163212280F8392080F83810006886
:1019E000C16841F08001C16000207047012070474C
:1019F000022070477047FEE72DE9F041002000F01B
:101A000065F83120401EFDD22F4C012625780F2D80
:101A100058D0607801284FD10027677000F056F841
:101A20000A210820401EFDD220782840207041283D
:101A300035D012DC21282AD008DC11281ED012282B
:101A40001ED014281ED0182834D11EE0222820D001
:101A5000242820D028282DD11FE0812827D006DC7B
:101A600042281ED044281ED0482823D11DE08228B9
:101A70001FD0842822D088281CD121E0A67019E02C
:101A8000022000E00320A07014E00C20FBE70420FB
:101A9000F9E70520F7E70620F5E70D20F3E7072033
:101AA000F1E70820EFE70920EDE70E20EBE7A17052
:101AB00000E0A77021726672BDE8F0810B20E2E7BA
:101AC0000F20E0E76670F7E7000000202DE9F05FE7
:101AD0005A4C00215A4F5B4D21704FF480764FF4E1
:101AE00000484FF480494FF4005A4FF4805B88B3AC
:101AF000012231463846FEF77EFF01224146284644
:101B0000FEF779FF012249462846FEF774FF0122BD
:101B100051462846FEF76FFF002259462846FEF739
:101B20006AFF0022E9142846FEF765FF0022291506
:101B30002846FEF760FF002202212846FEF75BFFE1
:101B4000DC20401EFDD231463846FEF74FFF01280B
:101B500026D029E0FFE7002231463846FEF74BFF4A
:101B6000002241462846FEF746FF00224946284605
:101B7000FEF741FF002251462846FEF73CFF0122B6
:101B800059462846FEF737FF0122D1022846FEF7C4
:101B900032FF012291022846FEF72DFF0122CBE7FA
:101BA000207840F08000207041462846FEF71EFF56
:101BB000012803D1207840F0400020704946284693
:101BC000FEF714FF012803D1207840F02000207098
:101BD00051462846FEF70AFF012803D1207840F03D
:101BE0001000207059462846FEF700FF012803D157
:101BF000207840F0080020704FF400612846FEF77E
:101C0000F5FE012803D1207840F0040020704FF445
:101C100080612846FEF7EAFE012803D1207840F0D3
:101C20000200207002212846FEF7E0FE012803D1C1
:101C3000207840F001002070BDE8F09F00000020F7
:101C400000080140000C014070B504460D463020EC
:101C500002F0D0FB34B1012C06D0022C06D0032CAC
:101C600006D006E0802404E0902402E0882400E00E
:101C700098246019BDE87040C0B202F0BBBB10B53B
:101C8000FEF792FC342002F0B5FB01F002FA30209E
:101C900002F0B0FB01F0FDF90C2002F0ABFB01F00B
:101CA000F8F9012002F0A6FB01F0F3F9062002F09A
:101CB000A1FBBDE8104001F0ECB9000070B50E4E7C
:101CC0000C460546012220213046FEF794FE0DB158
:101CD000FA2000E0F82002F0A9FB04F0F00002F086
:101CE000A5FB2007000E02F0A1FB3046BDE87040C6
:101CF00000222021FEF77FBE000C014010B50446F3
:101D000003E00120FFF7DAFF641C21780029F8D1F5
:101D100010BD10B50446007B012802D1206801F0F7
:101D2000A7FF002020606060A060207310BD00004D
:101D30005FF0010200F07F030B70C00909D043F08F
:101D40008003521C01F8013B042AF3DD4FF0FF3001
:101D50007047104670472DE9F041044600250068A1
:101D60000F462E4610B10220207315E0012020738B
:101D7000084602F0B9FA2060002808D0C4E90167DB
:101D800002E0206846556D1CA068A842F9D8BDE85D
:101D9000F081206846556D1CA068A842F9D866609D
:101DA0008842F4D22660F2E72DE9FF4717468846BD
:101DB0008146FEF735FA84B24046FEF731FA002636
:101DC000A01D02F091FA050025D0A11DFEF7F5F93E
:101DD00012A02246016829608088A88049462846CA
:101DE000FEF725FA4046FEF71BFA034600200DF1E8
:101DF000040A012100908AE88300424629460A200D
:101E000000F058F900B10126284601F031FF3046B4
:101E100004B0BDE8F0870120FAE700002463727384
:101E2000702F00002DE9FF5F9A469346002510466B
:101E3000DDF844900E9F139CFEF7F2F906B2BBF159
:101E4000000F1FD006F111001FFA80F807B102251C
:101E5000109868B145F00405FEF7E2F9C7B24846AC
:101E6000FEF7DEF9C11901EB0800001D1FFA80F82A
:101E70000F9870B1012807D0022808D0022004B0C2
:101E8000BDE8F09F0120FAE745F00C0501E045F0C0
:101E90001405129808B145F02405009860B3019824
:101EA00050B345F0C0070098FEF7BAF9054601980F
:101EB000FEF7B6F9291801EB0800001D85B2294686
:101EC0002046FFF748FF2068C0B12946FEF775F9A4
:101ED000D4E90030411C102261601A54D4E9000199
:101EE0000144681FFFF724FF00B2002808DA2046EB
:101EF000FFF70FFF0520C2E70320C0E70420BEE77D
:101F0000616823680844411C616000221A54D4E9C6
:101F10000030421C042162601954D4E90050421C74
:101F20004D2362602B54D4E90050421C626051235F
:101F30002B54D4E90030451C542265601A54D4E96E
:101F40000050431C63602A54D4E90030421C626094
:101F50001954D4E90020411C61601754D4E90030C1
:101F6000411C4FEA1A2261601A54D4E90030421C25
:101F7000626003F800A0D4E90030411C320A6160BD
:101F80001A54D4E90020411C61601654D4E90001C0
:101F9000084432465946FEF74AF9606830446060AA
:101FA000780736D5B9F1000F01D10FF2D809109892
:101FB000FEF736F985B2D4E90030411C2A0A616087
:101FC0001A54D4E90020411C61601554D4E9000181
:101FD00008442A461099FEF72AF960682844606090
:101FE0004846FEF71DF985B2D4E90030411C2A0AA3
:101FF00061601A54D4E90020411C61601554D4E991
:10200000000108442A464946FEF711F96068284451
:102010006060380618D50098FEF702F985B2D4E959
:102020000030411C2A0A61601A54D4E90020411C86
:1020300061601554D4E9000108442A460099FEF76E
:10204000F6F8606828446060780618D50198FEF7B5
:10205000E7F885B2D4E90030411C2A0A61601A54BD
:10206000D4E90020411C61601554D4E90001084402
:102070002A460199FEF7DBF860682844606000207A
:10208000FDE600000000000010B504460221FFF745
:1020900062FE216861B16068C023421C62600B541B
:1020A000D4E900300022411C61601A54104610BD72
:1020B000012010BD2DE9FF4F81B090464FF0000682
:1020C000119C0F9A9A465FEA000BB146314608D13F
:1020D000012005B0BDE8F08F232816D02B2814D09E
:1020E000761C0298805D0028F6D141F030070AB1D5
:1020F00047F0010706EB0A050E98AD1C68B10128F0
:1021000005D0022806D00320E3E70220E1E747F0EC
:10211000020701E047F00407AD1C98F80000022810
:102120001AD0E91C2046FFF716FE206850B3E91CC0
:10213000FEF743F8D4E90020411C61601754D4E94C
:10214000000101442846FFF7F3FD00281CDA204671
:10215000FFF7DFFD0520BCE75FF0000018F8001076
:10216000401C7D29FAD100F10409AAEB0900291AC3
:1021700000912046C91CFFF7EEFD206810B10099C0
:10218000C91CD5E70420A4E7616823680844411C02
:10219000320A61601A54D4E90020411C616016546F
:1021A000D4E90001084432460299FEF740F860681D
:1021B000304460600E9959B12368411C4FEA1B22DC
:1021C00061601A54D4E90030421C626003F800B028
:1021D000B8F1000F0ED098F800000228D4E90001F1
:1021E000084409D052464146FDF7CEFF616801EB35
:1021F0000A00606000206CE74A464146FDF7C4FFD4
:10220000616801EB0900F4E77FB50D460120089CE9
:102210000021CDE90204CDE900011E460A46EB1C6F
:102220000CA10A20FFF746FF10B1012004B070BDD9
:10223000D4E90020411C61601654D4E90030411CEF
:102240002A0A61601A54D4E90020411C61601554C7
:102250000020EBE724647000F0B504460020012361
:102260005D05106012E0275C166807F07F0707FB2A
:1022700003661660265C360601D4401CF0BDDB0107
:10228000AB4202D36FF00100F0BD401C8842EADB94
:102290004FF0FF30F0BD2DE9F8430E4607461D46CE
:1022A00090462F21801DFDF7B1FF0021009150B312
:1022B000441C6A460421781CFFF7CEFF252002F05B
:1022C00013F8306008B32521FDF777FF242221465B
:1022D0003068FDF759FF009824342C3880B22880EC
:1022E000401C02F001F8C8F8000080B12988491CA0
:1022F000FDF763FF2A882146D8F80000FDF744FF68
:102300000020BDE8F8830120FBE70220F9E73068F0
:1023100001F0AEFC0320F4E74178022901D001204E
:102320007047817819B1012901D0FF207047C0782A
:1023300070474178022904D1817811B9C0780A2800
:1023400001D00120704700207047000038B50446D6
:102350000078FF210009421E0E2A01D3084638BD2D
:102360000328FCD1002000906A460421601CFFF77E
:1023700073FF20440099401C022907D32278D2071A
:1023800004D1028852BA921C8A4201D9FF2038BD7A
:1023900004A1801CFDF728FF08B10F2038BD0320E1
:1023A00038BD00002463726571000000F0B585B08F
:1023B00000252048019502950395816941F010019F
:1023C0008161816901F010010491816941F004018A
:1023D0008161816901F004010491816941F0080182
:1023E00081618069144F00F008000226049069465C
:1023F00000963846FEF70AFA012448F20100CDE9BA
:102400000004CDE9024669463846FEF7FFF94FF66B
:102410000240CDE90005694602940848FEF7F6F946
:102420002002CDE90005694602943846FEF7EEF930
:1024300005B0F0BD0010024000080140000C014052
:1024400010B586B0002415480094019402940394BA
:1024500004944FF08041059401603F21C0E90114CC
:102460004FF47A71C0E903148461FEF760FE00B195
:10247000FEE74FF48050009069460848FEF79FFE43
:1024800000B1FEE7049404A904480594FEF72EFE6B
:10249000002800D0FEE706B010BD00005C00002060
:1024A000FEE7704730B58BB00021184806910791C0
:1024B0000891099102780124521C027006A8CDE906
:1024C00004100291039100910191230210A213A123
:1024D00014A0FFF7A7FCB0B9079881B20698FDF7E2
:1024E000A7FFFA20FDF720FF050009D0FFF72EFF18
:1024F000022805D12846FFF70FFF002800D8002446
:1025000006A8FFF706FC0BB0204630BD3A000020BD
:10251000363838393933303438000000313233340A
:1025200000000000343036353337000030B58DB050
:10253000044616A1FDF78FFE202104A8FDF73DFEFD
:10254000134814A1026804A800F08AFC04A92046DC
:10255000FDF73EFE202104A8FDF72FFE12498878E2
:102560004D790B79CA788DE82D004B780A780FA148
:1025700004A800F075FC04A92046FDF729FE2046BA
:10258000FDF74EFE0DB0C0B230BD00002C3B000088
:102590001800002066696E6765727072696E744912
:1025A000442C25643B000000280000205061737318
:1025B000776F72642C256425642564256425642561
:1025C000643B00001FB50020009001900290039032
:1025D0006846FFF759FD20B9019881B20098FDF7D0
:1025E00027FF6846FFF795FB04B0002010BD0000F0
:1025F00030B5044687B025A1C01CFDF7F5FD254D7B
:10260000012100B1297024A1E01CFDF7EDFD08B106
:1026100002202870002105910191029103910491FB
:102620000091ADF818102046FFF790FE042826D040
:102630000F2827D106AB6A4601A92046FFF72BFEDB
:10264000040004D0FDF762FE641C16D00FE0DDE943
:10265000001002AAFFF7A8FB38B9039881B20298CC
:10266000FDF7E6FE02A8FFF754FBFDF74FFE0198C9
:1026700001F0FEFA009801F0FBFA07B030BD2046E9
:10268000FFF757FEFDF742FEF7E700006B61693187
:10269000000000000F0000206B61693000000000A6
:1026A00030B5A7B0002023902490259004462690B2
:1026B000802101A8FDF781FD01A8FFF737FF050084
:1026C0001ED023A800900523002229460DA0FFF765
:1026D0009BFD002814D101A8AC4209DA015DDDE9B7
:1026E0002323D1542499491C641C24B22491F3E778
:1026F000249881B22398FDF79BFE23A8FFF709FBDE
:1027000027B030BD3638383939333034380000001E
:1027100070470000164810B58179002927D00021A4
:102720008171EF2000F0EEFA012000F0EBFAFF20BB
:1027300000F0E8FAFF2000F0E5FAFF2000F0E2FAEE
:10274000FF2000F0DFFA012000F0DCFA002000F0AA
:10275000D9FA032000F0D6FA102000F0D3FA0020B6
:1027600000F0D0FABDE81040142000F0CBBA10BD44
:102770000000002070470000464810B5817900290C
:102780007ED0002181710079C0B3012859D0022880
:102790007FD1EF2000F0B6FA012000F0B3FAFF205D
:1027A00000F0B0FAFF2000F0ADFAFF2000F0AAFA26
:1027B000FF2000F0A7FA012000F0A4FA002000F0AA
:1027C000A1FA082000F09EFA042000F09BFA0120F4
:1027D00000F098FA002000F095FA002000F092FA3C
:1027E000032000F08FFAE82000F08CFA002000F0BF
:1027F00089FAF920BDE8104000F084BAEF2000F01B
:1028000081FA012000F07EFAFF2000F07BFAFF2021
:1028100000F078FAFF2000F075FAFF2000F072FA5D
:10282000012000F06FFA002000F06CFA032000F0A5
:1028300069FA012000F066FA002000F063FA052032
:10284000D8E7EF2000F05EFA012000F05BFAFF20ED
:1028500000F058FAFF2000F055FAFF2000F052FA7D
:10286000FF2000F04FFA012000F04CFA002000F0A9
:1028700049FA042000F046FA022000F043FA00E092
:1028800007E0012000F03EFA002000F03BFA0820AB
:10289000B0E710BD0000002010B50446EF2000F0A6
:1028A00031FA012000F02EFAFF2000F02BFAFF2071
:1028B00000F028FAFF2000F025FAFF2000F022FAAD
:1028C000012000F01FFA002000F01CFA072000F0A1
:1028D00019FA0C2000F016FA002000F013FA204636
:1028E00000F010FA002000F00DFA012000F00AFAC2
:1028F0001534E4B2002000F005FA2046BDE810408F
:1029000000F000BAFEF782B830B58FB028216846D3
:10291000FDF753FC14210AA8FDF74FFC0225012006
:10292000049000951020059000244FF46010CDE92C
:10293000084007956846FEF733FA00B1FEE70F201E
:10294000CDE90A054FF48060CDE90C4002210AA8C8
:102950000E94FEF739F9002800D0FEE70FB030BD25
:102960000D48016841F00101016041680B4A1140C6
:10297000416001680A4A11400160016821F4802128
:102980000160416821F4FE0141604FF41F01816044
:102990000449C00308607047001002400000FFF8BF
:1029A000FFFFF6FE08ED00E00148FEF774BC0000F2
:1029B0005C000020F0B50268164B174C174D4FF025
:1029C0008047984205D0B84203D0A04201D0A84227
:1029D00003D122F070064A683243984205D0B842CB
:1029E00003D0A04201D0A84203D122F44074CA68A7
:1029F00022434C6922F08002224302608A68C2624C
:102A00000A688262984201D109690163012141612A
:102A1000F0BD0000002C0140000400400008004010
:102A200010B5846842EA032224F47F440A43224317
:102A3000826010BD826822F070020A4342F00701F2
:102A40008160704710B5036A046A24F001040462CF
:102A5000846924F0F00444EA021423F00A020A43D1
:102A60008461026210BD10B5036A23F01003036293
:102A70008369046A23F4704343EA023224F0A0031A
:102A800043EA01118261016210BD10B5406A002164
:102A9000C185C184FEF71BFD10BD0168CA6822F420
:102AA0009072CA6001684A6922F001024A612021DD
:102AB00080F83A10704710B590F83A10222901D0EA
:102AC000022010BD8168B1F5805F11D00169002935
:102AD00001681FD0496801F07F03816A4A1C826245
:102AE0000B70C18D491E0904090CC18518D02BE05B
:102AF0000269816A002A0268526805D0D2B20A804F
:102B0000816A491C8162ECE7C2F308020A80816A8B
:102B1000891CF7E74A68816A4B1C83620A70E0E708
:102B20000168CA6822F02002CA600168CA6822F4FB
:102B30008072CA6001684A6922F001024A6120215C
:102B400080F83A10FEF71AFE002010BD2DE9F04182
:102B5000044600680169E26821F4405111430161B3
:102B60002169A0680843616908432168CA6841F285
:102B70000C639A430243CA6020684169A26921F448
:102B80004071114341611E49206864253226884204
:102B900002D1FEF7BFF801E0FEF7ACF800EBC00190
:102BA00001EB001160686FF018078000B1FBF0F2D4
:102BB000B2FBF5F2B1FBF0F37A4303EB8202B1FB17
:102BC000F0F306EB0212B2FBF5F2B3FBF5F302F001
:102BD000F00202EB0312B1FBF0F3B1FBF0F0B0FB3B
:102BE000F5F0784303EB800006EB0010B0FBF5F046
:102BF000216800F00F0010448860BDE8F0810000FB
:102C00000038014090F83910212901D00220704786
:102C10008168B1F5805F016A0BD04A1C02620268CC
:102C200009785160C18C491E0904090CC1840ED079
:102C300017E009880268C1F30801516001690029A1
:102C4000016A02D0491C0162ECE7891CFBE70168BC
:102C5000CA6822F08002CA600068C16841F0400181
:102C6000C160002070472DE9F041984617460E4696
:102C70000446069D1DE0681C1BD02DB1FDF7C0FE6B
:102C8000A0EB0800A84214D92068C16821F4D071D3
:102C9000C1602068416921F001014161202084F870
:102CA000390084F83A00002084F838000320BDE899
:102CB000F0812068006836EA000004D00020B842A5
:102CC000D9D00020F3E70120F9E7000010B508484B
:102CD000FEF704FC0648FEF7FBFB2028FAD1012290
:102CE00004490348FEF720FD0028F8D110BD00007C
:102CF000DC0400203C0000200148FEF7EFBB000090
:102D00009C00002008B501228DF8000069460348A8
:102D1000FEF751FE0120FDF7B5FC08BD9C00002028
:102D2000FEE700000C4810B50A4901604FF4E1319C
:102D30004160002181600C22C160C0E90412816100
:102D4000C161FEF753FCBDE810400122034902486F
:102D5000FEF7EABC00380140DC0400203C00002003
:102D60000A4601464FF6FF730148FEF7C7BD000053
:102D7000DC04002010B54FF4FA7402E02046FDF7A1
:102D800081FCC82213A114A0FDF730FB0028F5D167
:102D900002E02046FDF776FCC8220EA110A0FDF748
:102DA00025FB0028F5D102E02046FDF76BFCC82288
:102DB00008A10FA0FDF71AFB0028F5D102E020467C
:102DC000FDF760FCC8220EA10FA0FDF70FFB002845
:102DD000F5D110BD4F4B000041540D0A000000001A
:102DE00041542B43574D4F44453D310D0A000000DF
:102DF00041542B4357444843503D312C310D0A0078
:102E0000474F54204950000041542B43574A4150EA
:102E10003D22434D43432D4748504E222C227937C3
:102E20006E3271727961220D0A00000030B585B0F2
:102E30000D460446FDF7D6FC0020012102940090C7
:102E4000CDE9031004A96846FDF72EFC2A460023AD
:102E500021460220FDF786FCFDF77AFC05B030BD67
:102E60000FB4084B10B504A902AA039800F02CF87F
:102E7000044602A9002000F003F9204610BC5DF8CA
:102E800014FB0000813000080907090E002804DB4C
:102E900000F1E02080F80014704700F00F0000F10E
:102EA000E02080F8141D704702E008C8121F08C116
:102EB000002AFAD170477047002001E001C1121FBB
:102EC000002AFBD1704700002DE9FF4F8BB09A46D6
:102ED0000F460546002606E025280BD052460D99E0
:102EE00090476D1C761C28780028F5D10FB030462D
:102EF000BDE8F08F0024A0460122604900E00443B1
:102F000015F8013F203B02FA03F00842F7D1287878
:102F10002E2817D115F8010F44F004042A280ED0EA
:102F20006FF02F022878A0F1300109290AD808EBA8
:102F3000880102EB410100EB01086D1CF2E757F834
:102F4000048B6D1C287869283ED006DC0028CDD083
:102F500063280BD0642804D136E0732810D075287C
:102F60004BD052460D999047761C85E017F8040B1C
:102F70008DF8000000208DF80100E946012003E0F3
:102F800057F8049B4FF0FF3061074FF0000401D465
:102F90000AE0641C44450DDA8442FADB19F8041097
:102FA0000029F6D106E0641C8442FCDB19F8041009
:102FB0000029F8D1264404E019F8010B52460D9976
:102FC0009047641EF8D257E001CF4FF00A0B00285B
:102FD00002DA40422D2102E0210504D52B218DF893
:102FE0002410012103E0E10705D02021F7E70DF1CE
:102FF000200908910CE00021F9E701CF4FF00A0BFE
:10300000F9E75946FDF730F901F1300209F8012DD1
:103010000028F6D1ADEB090000F1200B600701D4C8
:103020004FF00108D84502DDA8EB0B0000E00020BE
:103030008046002406E009A85246005D0D9990479D
:10304000641C761C08988442F5DB04E0302052466C
:103050000D999047761CB8F10001A8F10108F5DC44
:1030600005E019F8010B52460D999047761CBBF10B
:103070000001ABF1010BF4DC6D1C34E70928010001
:103080000A68531C0B60107070473220401EFDD13F
:1030900070473220401EFDD1704700002DE9F041FD
:1030A000FA4D0026A87B002858D00A24012879D0A0
:1030B000022878D0032877D06427042875D0052803
:1030C00074D0062873D0072872D0082871D0092838
:1030D00070D00A286FD00B286ED00C286DD00D2828
:1030E0006CD00E286BD010286AD0112834D1002162
:1030F0000846FEF7A9FDE6A0FEF700FE002101202C
:10310000FEF7A2FDE7A0FEF7F9FD00210220FEF781
:103110009BFDE9A0FEF7F2FD287AB0FBF4F0B0FBCE
:10312000F4F104FB110101203031FEF7C7FD287ACC
:10313000B0FBF4F104FB110101203031FEF7BEFDBC
:10314000DDA0FEF7DBFD00210320FEF77DFDDCA006
:10315000FEF7D4FD2E73EE72BDE8F081CB48EE7120
:1031600028300021067046708670C6700671467160
:103170000846FEF769FDD7A0FEF7C0FD002101203B
:10318000FEF762FDD8A0FEF7B9FD00210220FEF790
:103190005BFDCBA0FEF7B2FD00210320FEF754FD3E
:1031A000D6A080E20DE04EE07CE0B3E00EE160E10D
:1031B00046E279E273E3A6E3FBE3FDE3FDE3FDE32F
:1031C000FDE300210846FEF73FFDD1A0F8E3D5A0BE
:1031D00000E0D5A0FEF792FDD4A0E2E7D1A000E088
:1031E000D1A0FEF78BFDD4A0DBE702287ED0032818
:1031F0007DD0042813D005281CD00628ACD1D1A03E
:103200001DE0C8A000E0C8A0FEF778FDAEA0C8E7AA
:10321000C4A000E0C4A0FEF771FDA7A0C1E7CBA049
:10322000FEF76CFDF0E2BFA000E0BFA0FEF766FD78
:10323000BFA0B6E7C7A0EEE2BAA000E0BAA0FEF7D2
:103240005DFDBEA0ADE700210846FEF7FDFCC3A072
:10325000FEF754FD287AB0FBF4F0B0FBF4F104FB68
:10326000110101203031FEF729FD287AB0FBF4F17D
:1032700004FB110101203031FEF720FD0021012067
:10328000FEF7E2FCB9A0FEF739FD00210220FEF7AF
:10329000DBFCBBA0FEF732FD00210320FEF7D4FCCF
:1032A000BCA000E200210846FEF7CEFCBEA0FEF75F
:1032B00025FD00210120FEF7C7FCC0A0FEF71EFD82
:1032C00000210220FEF7C0FC7BA0FEF717FD287A44
:1032D000B0FBF4F0B0FBF4F104FB1101012030313C
:1032E000FEF7ECFC287AB0FBF4F101E0A3E3A3E3E2
:1032F00004FB110101203031FEF7E0FC6EA0FEF767
:10330000FDFC00210320FEF79FFCB1A0FEF7F6FCB8
:103310002E7121E700210846FEF796FCB1A0FEF7CA
:10332000EDFC00210120FEF78FFCB3A0FEF7E6FCC8
:1033300000210220FEF788FC5FA0FEF7DFFC287A60
:10334000B0FBF4F0B0FBF4F104FB110101203031CB
:10335000FEF7B4FC287AB0FBF4F104FB1101012064
:103360003031FEF7ABFC54A0FEF7C8FC002103206F
:10337000FEF76AFCA5A0FEF7C1FCA869B0FBF7F058
:10338000B0FBF4F104FB110101203031FEF796FC93
:10339000A869B0FBF4F0B0FBF4F104FB11010120CB
:1033A0003031FEF78BFCA869B0FBF4F104FB11018E
:1033B00001203031FEF782FC4FA0FEF79FFC2E71FA
:1033C000FFF76EF9BDE8F041FCF7A0BF0021084609
:1033D000FEF73AFC83A0FEF791FC00210120FEF7E6
:1033E00033FC8DA0FEF78AFC00210220FEF72CFCA6
:1033F00031A0FEF783FC287AB0FBF4F0B0FBF4F1C7
:1034000004FB110101203031FEF758FC287AB0FB93
:10341000F4F104FB110101203031FEF74FFC26A02E
:10342000FEF76CFC00210320FEF70EFC77A0FEF7F0
:1034300065FCA869B0FBF7F0B0FBF4F104FB1101E7
:1034400001203031FEF73AFCA869B0FBF4F0B0FB84
:10345000F4F104FB110101203031FEF72FFCA869C3
:10346000B0FBF4F104FB110101203031FEF726FC22
:1034700003E200210846FEF7E7FB4BA0FEF73EFC07
:1034800000210120FEF7E0FB68A014E2000000200C
:10349000202020202020BEAFB8E6202020202020A1
:1034A0000000000020202020CFB5CDB3CBF8CBC04A
:1034B00020202020000000002020202020202000AC
:1034C00020202020202020202020202020202020FC
:1034D0000000000020202020BBB6D3ADCAB9D3C362
:1034E00020202020000000002020D6B8CEC6C3DC5B
:1034F000C2EBB5E7D7D3CBF8202000002020202056
:10350000C7EBC4FABFAACBF820202020000000009F
:1035100020202020C9E8D6C3BDE7C3E62020202014
:10352000000000005F00000020000000202020209C
:1035300020202020202000002020202020202020CB
:10354000200000002A2A2A2A2A2A00002A2A2A2AB7
:10355000000000002A2A2A2A2A000000313AD4F664
:10356000BCD3D6B8CEC6202020200000323ACAD61E
:10357000B6AFBFAACBF820202020202000000000FA
:10358000333AC9BEB3FDD6B8CEC6202020202020B5
:1035900000000000343AB8FCB8C4C3DCC2EB202001
:1035A000202020200000000020202020C7D7B6D4F3
:1035B000B2BBC6F0202020200000000020202020E8
:1035C000BFAAC3C5CAA7B0DC20202020000000008D
:1035D0002020CEB4CBD1CBF7B5BDD6B8CEC62020F7
:1035E0000000000020202020C7D7B9A7CFB2C4E335
:1035F000202020200000000020202020BFAAC3C5DA
:10360000B3C9B9A620202020000000002020D6B891
:10361000CEC6B1E0BAC53A0020202020CCEDBCD304
:10362000B3C9B9A6202020200000000020202020BF
:10363000C3DCC2EBB4EDCEF320202020000000005C
:1036400000210846FEF700FBFCA0FEF757FB002117
:103650000120FEF7F9FAFEA0FEF750FB0021022040
:10366000FEF7F2FAAFF2B010FEF748FB287AB0FB93
:10367000F4F0B0FBF4F104FB110101203031FEF74E
:103680001DFB287AB0FBF4F104FB1101012030315D
:10369000FEF714FBAFF2E010FEF730FB0021032031
:1036A000FEF7D2FAEFA04FE200210846FEF7CCFA6F
:1036B000F1A0FEF723FB287AB0FBF4F0B0FBF4F1A5
:1036C00004FB110101203031FEF7F8FA287AB0FB33
:1036D000F4F104FB110101203031FEF7EFFA002173
:1036E0000120FEF7B1FAE8A0FEF708FB0021022056
:1036F000FEF7AAFAE9A0FEF701FBE87960B101281C
:1037000016D0022824D0032831D004283ED0052822
:103710004BD0062875D059E0687B10B1AFF2FC1091
:1037200001E0AFF2FC10FEF7E9FAAFF2FC104BE05B
:10373000AFF2DC10FEF7E2FA687B10B1AFF21C20AA
:1037400001E0AFF21C20FEF7D9FAAFF210203BE007
:10375000AFF20C20FEF7D2FA687B10B1AFF23C203A
:1037600001E0AFF23C20FEF7C9FAB7A02CE0CEA0F2
:10377000FEF7C4FA687B10B1AFF2582001E0AFF257
:103780005820FEF7BBFAAFF2CC201DE0AFF2442088
:10379000FEF7B4FA687B10B1AFF2782001E0AFF227
:1037A0007820FEF7ABFAB7A00EE0AFF25820FEF794
:1037B000A5FA687B10B1AFF2942001E0AFF2982037
:1037C000FEF79CFAAFF2A020FEF798FA0021032042
:1037D000FEF73AFAB5A0FEF791FAE879062813D079
:1037E000072816D008281DD009282AD00A2837D043
:1037F0000B2844D00C287FF410ADAFF2B82049E07C
:10380000FFE7AFF2C020DBE7687B00283FF40DAD97
:1038100009E5AFF2BC20FEF771FA687B00283FF49F
:103820000DAD09E5AFF2E020FEF768FA687B10B154
:10383000AFF2103001E0AFF21030FEF75FFA82A075
:1038400082E199A0FEF75AFA687B10B1AFF22C30F2
:1038500001E0AFF22C30FEF751FAAFF2A03073E185
:10386000AFF21830FEF74AFA687B10B1AFF24C3075
:1038700001E0AFF24C30FEF741FA82A064E1AFF212
:103880002C30FEF73BFA687B10B1AFF2683001E0F4
:10389000AFF26C30FEF732FAAFF2743054E100212F
:1038A0000846FEF7D1F965A0FEF728FA00210120AD
:1038B000FEF7CAF980A0FEF721FA00210220FEF7E8
:1038C000C3F9AFF20C40FEF719FA287AB0FBF4F016
:1038D000B0FBF4F104FB110101203031FEF7EEF9E9
:1038E000287AB0FBF4F104FB110101203031FEF71E
:1038F000E5F9AFF23C40FEF701FA00210320FEF7A4
:10390000A3F971A020E100210846FEF79DF973A0FC
:10391000FEF7F4F900210120FEF796F974A0FEF7F6
:10392000EDF900210220FEF78FF9AFF27440FEF7A7
:10393000E5F9287AB0FBF4F0B0FBF4F104FB1101D7
:1039400001203031FEF7BAF9287AB0FBF4F104FB1C
:10395000110101203031FEF7B1F9AFF2A440FEF7BA
:10396000CDF900210320FEF76FF966A0FEF7C6F936
:10397000A869B0FBF7F0B0FBF4F104FB11010120E2
:103980003031FEF79BF9A869B0FBF4F0B0FBF4F11D
:1039900004FB110101203031FEF790F9A869B0FB5A
:1039A000F4F104FB1101BDE8F04101203031FEF7D4
:1039B00085B90021084604E00FE0C9E0D6E034E113
:1039C000DAE0FEF741F9AFF2E430FEF797F90021B3
:1039D0000120FEF739F94EA00CE000210846FEF761
:1039E00033F9AFF20040FEF789F900210120FEF71C
:1039F0002BF94CA0FEF782F900210220FEF724F9F2
:103A0000AFF24C50FEF77AF9287AB0FBF4F0B0FB35
:103A1000F4F104FB110101203031FEF74FF9287A4F
:103A2000B0FBF4F104FB110101203031FEF746F93F
:103A3000AFF27C5080E0E4E0EDE0000020202020A8
:103A4000D4F6BCD3D6B8CEC620202020000000007B
:103A5000C7EBBDABCAD6D6B8B7C5D4DAC4A3BFE9E5
:103A600000000000CDCBB3F6C7EBB0B4B7B5BBD800
:103A7000B0B4BCFC0000000020202020B8FCB8C47A
:103A8000C3DCC2EB20200000C7EBC4FACAE4C8EBD9
:103A9000C1F9CEBBC3DCC2EB00000000CAE4C8EB36
:103AA000C3DCC2EB3A0000002A2A2A00D4D9B4CEE3
:103AB000CAE4C8EB3A00000020202020C2BCC8EBBA
:103AC000CAA7B0DC20202000C8CED2E2B0B4BCFC33
:103AD000B0B4CFC2BCCCD0F8000000002020202021
:103AE000CCE1CABEBDE7C3E62020202000000000D4
:103AF0002020C9BEB3FDD6B8B6A8D6B8CEC6202001
:103B000000000000CAE4C8EBD6B8CEC6BAC53A0079
:103B100020202020C9BEB3FDB3C9B9A62020202093
:103B20000000000020202020B8FCB8C4B3C9B9A60A
:103B30002020202000000000FEF7E0F800210320F4
:103B4000FEF782F8AFF28860BDE8F041FEF7D6B824
:103B500000210846FEF778F8AFF2B450FEF7CEF831
:103B600000210120FEF770F837A043E70021084646
:103B7000FEF76AF8AFF2A460FEF7C0F8002101205A
:103B8000FEF762F835A0FEF7B9F800210220FEF733
:103B90005BF8AFF2DC60FEF7B1F8287AB0FBF4F026
:103BA000B0FBF4F104FB110101203031FEF786F87F
:103BB000287AB0FBF4F104FB110101203031FEF74B
:103BC0007DF8AFF20C70FEF799F800210320FEF7A4
:103BD0003BF825A0FEF792F8E87960B101287FF460
:103BE00004ABAFF28C60FEF789F8687B00283FF4E5
:103BF000F7AAFFF7F3BA687B00283FF4EAAAFFF7B9
:103C0000E6BAAFF2BC60FEF779F8687B00283FF4B3
:103C1000FAAAFFF7F6BAAFF27010FEF76FF8687BFA
:103C200000283FF4F7AAFFF7F3BA00210846FEF791
:103C30000BF8AFF25060FEF761F800210120FEF7AB
:103C400003F8AFF24C60D5E620202020B8FCB8C4C1
:103C5000CAA7B0DC20202020000000002020202067
:103C6000CAE4C8EBC3DCC2EB202020202000000007
:103C700010B5002821D0114B0022001F196803E065
:103C8000814203D80A4649680029F9D152B1136824
:103C9000841A9C4204D1006818441060104602E067
:103CA000506000E0186039B102680B1A934203D1EA
:103CB0000B681A4402604968416010BD540000203E
:103CC0002DE9F04FE84987B0887810286FD0CD797A
:103CD0008E7B691C0E2201F0FF081024F6B3E24B24
:103CE00000214FF0020BDA79521E02F0FF0E03F1B1
:103CF0002E02177806975778059797780497D77804
:103D000003971779029752790192DA7A2833521C75
:103D1000D2B2009293F804C05F7993F800A093F8B0
:103D200001909A78DB78012E30D0022E6ED0062ECC
:103D30007AD0032E78D00B2E76D0042E74D0052E98
:103D400072D0072E71D00A2E70D0082E6FD00D2E93
:103D50006ED00C2EFCD00E2E6BD000E003E0C24AD9
:103D6000102E67D07AE1C0490C280BD00928F9D869
:103D7000062D04D201F12803585581F807808C7074
:103D80008A736BE18C700120887367E1B64E092855
:103D900003D8062D74D30620E7E00A2802D00B28AA
:103DA00006D02DE1002D01D086F807E02EE157E185
:103DB000BAF1000F08D1B9F1000F05D122B91BB932
:103DC000BCF1000F00D18FB1069DAA4572D1059DAF
:103DD000A945FBD104988242F8D103988342F5D1DA
:103DE00002988445F2D101988742EFD186F80EB04F
:103DF0003173F1720AE11120B0733C20307205E199
:103E0000B07386F808B001E1B173FFE0964A01286B
:103E100011D0022812D0032814D0042818D00F285B
:103E20001ED00E281CD019E11CE020E029E08AE019
:103E3000D0E0D3E010E1947007200FE094701E20D2
:103E400090720BE194700A209073D171916105E139
:103E500094700A201072D171082091619073FDE076
:103E600091730BE08048847081730172F6E07E4AA2
:103E70000F28F5D00E2802D182F80EB09470EDE034
:103E800068E0794E09283246926914D8032D82D20F
:103E90005DB13146012D8869897800EB800001EB26
:103EA000400003D0022D01D001E01044B06186F83B
:103EB0000780ABE0C8E00A2806D00B282CD00F28DA
:103EC0003AD00E283AD0C9E045B15FEA0E00F07151
:103ED00004D0012804D002280AD097E0B16195E00F
:103EE0000A20B2FBF0F1B1FBF0F200FB121011E07E
:103EF0000A20B2FBF0F1B1FBF0F300FB13116423D5
:103F0000B2FBF3F2B2FBF0F300FB132000EB8000F6
:103F100001EB4000B06179E0A2F54070B470E73881
:103F200007D0D0B2FEF7B8FC86F808B00B20B0730B
:103F300094E0FCF7C3F9F7E7B17301E086F80EB03F
:103F4000B47031728AE0484E092810D80C2D0BD27B
:103F5000062D03D2444928314855A8E74249343157
:103F6000294401F8060CA2E7032070724EE00A28EB
:103F70003FF418AF0B2871D13B48B470343090F83F
:103F80000080C24520D190F80180C1451CD18578C0
:103F9000AA4219D1C578AB4216D10579AC4513D1E7
:103FA0004079874210D186F808B00C20B073CDE973
:103FB00000C74946504600F0CDF94FF42670401E28
:103FC000FDD200F0F5F949E086F808B00D20B07395
:103FD000F17143E0244981F80EB03FE0224E0928F8
:103FE0000AD8062D05D206F12801485586F8078023
:103FF00034E00620707231E00A28B9D00B2807D0CF
:104000000F283FF401AF0E28FBD027E0B47025E065
:10401000069DAA4518D1059DA94515D1049882424F
:1040200012D1039883420FD1029884450CD1019894
:10403000874209D186F808B01E20B072B473F172BD
:104040003173FEF72DFBE1E7062070720099F172E3
:104050000329FFF4D5AECEE600B191730248847017
:1040600007B0BDE8F08F000000000020FCF7D6FC90
:10407000FEF74AFCFEF79AF9FEF7E2F96A48694949
:10408000002501604FF46141C0E901150C21C560B4
:10409000C0E9045185612A462946C561FCF70EFD39
:1040A00000B1FEE7614E00224FF400413046FCF7BC
:1040B000A2FC012211463046FCF79DFCC820FCF70B
:1040C000E1FAFDF7DCFD00210846FDF7BDFD58A033
:1040D000FDF714FE00210120FDF7B6FD59A0FDF704
:1040E0000DFE00210220FDF7AFFD5BA0FDF706FEEF
:1040F00000210320FDF7A8FD5CA0FDF7FFFD0021D6
:104100000846FDF7A1FD5EA0FDF7F8FD00210120A6
:10411000FDF79AFD50A0FDF7F1FD00210220FDF70B
:1041200093FD5CA0FDF7EAFD00210320FDF78CFD67
:1041300049A0FDF7E3FDFCF717F900210846FDF75C
:1041400083FD59A0FDF7DAFD00210120FDF77CFD7C
:104150005AA0FDF7D3FD00210220FDF775FD5CA0FC
:10416000FDF7CCFD00210320FDF76EFD53A0FDF708
:10417000C5FD4FF4FA7402E02046FCF783FAFEF71F
:1041800091F90028F8D128484038FDF707F80122B6
:1041900054492548FDF7C8FA00F00AF9514C40F29D
:1041A000B630103C2062FCF7B1F847F2305700BF40
:1041B000FEF774FFA07B112815D0FDF71DFCFFF75B
:1041C0007FFD02213046FCF711FC01280BD1A07BBA
:1041D00020B12571A07B072803D004E0FEF7CCFABC
:1041E000F8E7FEF797FAE07B30B1012812D0A5720C
:1041F00065722572A573E5730020FCF795F860627F
:1042000008B1FEF7F5F9E069B842D1D3E561FEF7F0
:10421000D9F9CDE71E20A072022060722072102012
:10422000A073E8E7004400409C0000200008014023
:1042300020202020BBB6D3ADCAB9D3C32020202074
:10424000000000002020D6B8CEC6C3DCC2EBB5E724
:10425000D7D3CBF8202000002020202020202020B1
:1042600020202020202020200000000020202020CE
:10427000B5C8B4FDCDF8C2E7202020202000000002
:104280002020D5FDD4DAC1ACBDD3576946692020C2
:104290000000000020202020C7EBC9D4BAF3202062
:1042A0002020202020000000D5FDD4DAC1ACBDD3F1
:1042B00057694669206F6E656E6574002020202066
:1042C000202020202020202020202020202000002E
:1042D00020202020C7EBC9D4BAF3202020202020A2
:1042E0002020000010000020F0B50B30154D20F00C
:1042F00007010024144A0FE003688B420BD38B4262
:1043000005D95E1A43184768C3E9006700E04368AF
:10431000136002C004E0021D10680028ECD12046A2
:10432000002802D1286808B10020F0BD064A0748DD
:104330001060074A121A22F00702C0E90024012087
:104340002860D7E75800002054000020C405002052
:10435000C00700202DE9F0410E46DDE90645014683
:104360001F4690460C48FEF761FD31460B48FEF7AC
:104370005DFD41460A48FEF759FD39460948FEF7FA
:1043800055FD21460848FEF751FD2946BDE8F0419C
:104390000648FEF74BBD00000060000800810008E1
:1043A00000A2000800C3000800E40008000501089E
:1043B00009480168094801700949096841700949BB
:1043C0000968817008490968C17008490968017164
:1043D0000749096841717047006000082E000020FD
:1043E0000081000800A2000800C3000800E40008E3
:1043F0000005010870B50C4D044601222021284615
:10440000FCF7F9FAF82000F011F804F0F00000F0E1
:104410000DF82007000E00F009F82846BDE87040AE
:1044200000222021FCF7E7BA000C014070B5184EBD
:1044300004460825012240213046FCF7DCFA01221F
:1044400080213046FCF7D7FAFEF71FFE200601D583
:10445000012200E0002280213046FCF7CCFAFEF772
:1044600014FE002240213046FCF7C5FAFEF70DFE8F
:10447000FEF70BFE012240213046FCF7BCFAFEF7A6
:1044800004FE6006040E6D1E15F0FF05DED170BD42
:10449000000C0140000000000000000001020304C5
:1044A000060708090000000001020304CC440008CC
:1044B000000000205C000000A82E0008284500082D
:1044C0005C000020640B0000B82E00080000100003
:1044D00000000100000000000000000000000000DB
:1044E00000000000000000000000000000000000CC
:1044F00000000000000000000000000000000000BC
:1045000000000000000000000000000000000000AB
:1045100001000000100000000000000000A24A049A
:08452000000000000000000093
:0400000508000131BD
:00000001FF
